:020000040800F2
:100000001005002001010008750400086D040008B7
:1000100071040008C70200080F0A00080000000071
:100020000000000000000000000000000D060008B5
:10003000CB02000800000000FD04000821070008B2
:100040001B0100081B0100081B0100081B01000820
:100050001B0100081B0100081B0100081B01000810
:100060001B0100081B0100081B0100081B01000800
:100070001B0100081B0100081B0100081B010008F0
:100080001B0100081B0100081B0100081B010008E0
:100090001B0100081B0100081B0100081B010008D0
:1000A0001B0100081B0100081B0100081B010008C0
:1000B000850700081B0100081B0100081B01000840
:1000C0001B0100081B0100081B0100081B010008A0
:1000D0001B010008FD0700081B0100081B010008A8
:1000E0001B0100081B0100081B010008DFF80CD0F1
:1000F00000F018F800480047490B000810050020E0
:100100000648804706480047FEE7FEE7FEE7FEE7B1
:10011000FEE7FEE7FEE7FEE7FEE7FEE7250700084D
:10012000ED000008064C074D06E0E06840F00103D2
:1001300094E8070098471034AC42F6D3FFF7DAFF93
:10014000880E0008A80E0008CA430260704721B15B
:10015000826842F00102826003E0826822F00102BC
:1001600082607047014600208A6802F004020AB1EA
:10017000012000E0002070470146C86C80B2704743
:100180000246002013680B400BB1012000E0002064
:100190007047000030B502460020002350680F4C25
:1001A00020400D790C6844EA052420435060906893
:1001B0000B4C2040D1E902542C434D7944EA4504CC
:1001C00020439060D06A20F470000C7C641EE4B27E
:1001D000234340EA0350D06230BD0000FFFEF0FF31
:1001E000FDF7F1FFF0B504460D4600200021092D72
:1001F00011DDE068A5F10A0606EB4607072606FAB8
:1002000007F18843A5F10A0606EB460603FA06F154
:100210000843E0600CE0206905EB4507072606FA75
:1002200007F1884305EB450603FA06F10843206110
:10023000072A0FDA606B561E06EB86071F2606FAA2
:1002400007F18843561E06EB860605FA06F10843B9
:10025000606322E00D2A0FDA206BD61F06EB8607BB
:100260001F2606FA07F18843D61F06EB860605FA15
:1002700006F10843206310E0E06AA2F10D0606EBE8
:1002800086071F2606FA07F18843A2F10D0606EB42
:10029000860605FA06F10843E062F0BD816841F088
:1002A00008018160704721B1826842F4A002826037
:1002B00003E0826822F4A00282607047816841F006
:1002C00004018160704700BFFEE770472DE9F041EF
:1002D000024600250026002000230024002791F874
:1002E00003C00CF00F0591F803C00CF0100CBCF12A
:1002F000000F03D091F802C04CEA050591F800C048
:10030000BCF1000F31D0146800202BE04FF0010C3D
:100310000CFA00F3B1F800C00CEA03069E4220D1AB
:1003200083004FF00F0C0CFA03F7BC4305FA03FCF3
:100330004CEA040491F803C0BCF1280F06D14FF039
:10034000010C0CFA00FCC2F814C00AE091F803C0DA
:10035000BCF1480F05D14FF0010C0CFA00FCC2F8BB
:1003600010C0401C0828D1D31460B1F800C0BCF103
:10037000FF0F34DD546800202EE000F1080C4FF030
:10038000010808FA0CF3B1F800C00CEA03069E421B
:1003900021D183004FF00F0C0CFA03F7BC4305FA90
:1003A00003FC4CEA040491F803C0BCF1280F05D10A
:1003B00000F1080C08FA0CF8C2F8148091F803C098
:1003C000BCF1480F07D100F1080C4FF0010808FA02
:1003D0000CF8C2F81080401C0828CED35460BDE849
:1003E000F0814161704701617047000010B502461D
:1003F0000B461088012107E032F81140844202DDEB
:10040000034C34F81100491C9942F5D310BD00008B
:100410004400002010B502460B461088012107E079
:1004200032F81140844202DA034C34F81100491CBE
:100430009942F5D310BD00004400002010B5022100
:100440000948FFF781FE01210748FFF72CFF00BF95
:1004500002210548FFF794FE0028F9D00248FFF773
:100460008BFE0446204610BD0024014000BFFEE77D
:1004700000BFFEE77047000070B5002100230F2287
:10048000C47804B3154C246804F4E064C4F5E06453
:10049000210AC1F10403CA40447804FA03F18478C4
:1004A0001440214309010E4C0678A155047804F04C
:1004B0001F050124AC4005786D11AD0005F1E02564
:1004C000C5F8004109E0047804F01F050124AC40A0
:1004D000044D0678761145F8264070BD0CED00E01D
:1004E00000E400E080E100E002490143024A1160BB
:1004F000704700000000FA050CED00E070470000B6
:1005000001460020034A506820F4404008435060F0
:10051000704700000010024029B1064A9269024368
:10052000044B9A6104E0034A92698243014B9A6149
:10053000704700000010024030B500210022002466
:1005400000232D4D6D6805F00C0121B1042905D063
:10055000082923D105E0294D056022E0274D0560DB
:100560001FE0254D6D6805F47012234D6D6805F48C
:100570008034022505EB92421CB9214D554305609C
:100580000BE01D4D6D6805F400351DB11C4D554344
:10059000056002E0194D5543056002E0174D056006
:1005A00000BF00BF144D6D6805F0F0010909154D3D
:1005B0006B5C0568DD4045600F4D6D6805F4E061DA
:1005C000090A104D6B5C4568DD4085600A4D6D6819
:1005D00005F46051C90A0B4D6B5C4568DD40C56090
:1005E000054D6D6805F44041890B074D6B5CC5688E
:1005F000B5FBF3F5056130BD0010024000127A0032
:1006000000093D000000002010000020704710B5D8
:1006100000F002F810BD00000CB500200190009021
:100620003348006840F480303149086000BF3048EA
:10063000006800F4003000900198401C0190009880
:1006400018B90198B0F5A06FF1D12948006800F4FD
:10065000003010B10120009001E0002000900098CF
:10066000012843D12348006840F010002149086068
:100670000846006820F0030008600846006840F063
:10068000020008601A4840681949486008464068F6
:1006900048600846406840F480604860084640680A
:1006A00020F47C1048600846406840F4E810486038
:1006B0000846006840F08070086000BF0C48006881
:1006C00000F000700028F9D00948406820F00300CD
:1006D000074948600846406840F00200486000BF93
:1006E0000348406800F00C000828F9D10CBD000058
:1006F0000010024000200240042808D14FF0E02101
:10070000096941F004014FF0E022116107E04FF068
:10071000E021096921F004014FF0E02211617047E6
:100720007047000010B51348006840F001001149FF
:10073000086008464068104908400E49486008466D
:1007400000680E4908400B4908600846006820F41C
:10075000802008600846406820F4FE0048604FF49E
:100760001F008860FFF753FF4FF0006004490860E6
:1007700010BD0000001002400000FFF8FFFFF6FE71
:1007800008ED00E010B500240121880700F025F8ED
:10079000012818D1B4F57A7F05DA02210C48FFF759
:1007A00022FE641C0FE0B4F57A7F08DBB4F5FA6F23
:1007B00005DA02210648FFF714FE641C03E0B4F5D5
:1007C000FA6F00DB00240121880700F003F810BD58
:1007D00000080140CA430282704730B5024600203B
:1007E00000230024158A05EA0103958905EA01041E
:1007F00013B10CB1012000E0002030BD10B540F273
:1008000025510A4800F03EF8012804D1074800F0BD
:10081000F5F80749087040F22551044800F00AF83D
:1008200040F22771014800F005F810BD0038014082
:100830004200002010B50022002340F66A14A142B5
:1008400000D100BF0A1201249440A3B2DC4304800B
:1008500010BD21B1828942F40052828104E0828974
:100860004DF6FF731A408281704702460020B1F5B1
:10087000007F00D100BF13880B400BB1012000E0C6
:100880000020704770B50246002400230025002098
:1008900040F66A16B14200D100BFC1F3421501F023
:1008A0001F03012606FA03F3012D02D19689334076
:1008B00006E0022D02D1168A334001E0968A3340C9
:1008C0000C12012606FA04F41688344013B10CB158
:1008D000012000E0002070BDF0B503460024002692
:1008E0000025002040F66A17B94200D100BF184623
:1008F000C1F3421401F01F06012707FA06F5012C87
:1009000001D10C3004E0022C01D1103000E0143091
:100910001AB107682F43076002E00768AF4307601A
:10092000F0BD00002DE9F04786B005460E460024D4
:10093000A24600BFA1460027B08900B100BF2F46E4
:100940002C8A4CF6FF700440F08804432C82AC895A
:100950004EF6F3100440B08831890843718908438A
:100960000443AC81AC8A4FF6FF400440B089044395
:10097000AC8201A8FFF7E0FD1F48874202D1DDF8F5
:1009800010A001E0DDF80CA0A88900F4004040B1FF
:100990000AEBCA0000EB0A1031684900B0FBF1F81D
:1009A00007E00AEBCA0000EB0A1031688900B0FBCF
:1009B000F1F86420B8FBF0F004012009642101FB88
:1009C0001089A88900F4004040B1322000EBC90032
:1009D000B0FBF1F000F00700044308E0322000EB28
:1009E00009106421B0FBF1F000F00F0004432C81EA
:1009F00006B0BDE8F0870000003801400146888855
:100A0000C0F308007047C1F308028280704700BF3E
:100A1000FEE702E008C8121F08C1002AFAD1704799
:100A20007047002001E001C1121F002AFBD170476E
:100A300000B587B001214FF40170FFF76DFD202054
:100A4000ADF8180003208DF81A0048208DF81B001F
:100A500006A91B48FFF73AFC0020FFF751FD0020D4
:100A60008DF80900019001208DF8140000200490F9
:100A70004FF46020039000208DF8080001A9114870
:100A8000FFF788FB0523012219460E48FFF7AAFB52
:100A900001210C48FFF75BFB0A48FFF7FFFB00BF93
:100AA0000848FFF75FFB0028FAD10648FFF706FC6D
:100AB00000BF0448FFF756FB0028FAD107B000BD7D
:100AC000000801400024014070B505466FF00400A5
:100AD000FFF712FE1048B0F9000068434FF0E02124
:100AE0004861002088610846006940F00100086103
:100AF00000BF4FF0E020046904F480300028F8D0F3
:100B00004FF0E020006920F001004FF0E021086183
:100B10000020886170BD00004000002008B5012160
:100B20000420FFF7F9FC1E20ADF8000003208DF82B
:100B3000020010208DF8030069460248FFF7C6FB4B
:100B400008BD0000000801404FF4A060FFF7CCFC96
:100B5000FFF7E4FF00F040F9FFF76AFFD6E06C48CA
:100B600000886C490880FFF769FC694908800846DD
:100B7000008868490988401A6749098888420ADA62
:100B800063480188654802780078401C634B187000
:100B9000634820F8121061480078322824DB0020D6
:100BA0005E49087032215E48FFF720FC5D490880ED
:100BB00032215B48FFF72EFC5B49088059490988C0
:100BC000594A1288881800EBD071C1F34F01574A77
:100BD000118054490988544A1288881A00EBD07150
:100BE000C1F34F014C4A11805148007851490870B7
:100BF000474800884D490988884201DD012000E00E
:100C000000204B4908704B48007800286FD10846F7
:100C1000007801286BD148480078401C464908708C
:100C2000087800EBD0714910A0EB4101424A1170E5
:100C300010460078012807D14048008840490880C4
:100C400004214048FFF7CDFB3B48007890BB3B4870
:100C500000883D49088004213A48FFF7C4FB002082
:100C6000364908803848008835490988884221DD9E
:100C70003548008832490988401A00EB80004FF659
:100C8000FF7101EA800031490880084600884EF66D
:100C9000602191FBF0F02E49088008460088C828A2
:100CA00001DDC82008802A4800881E2802DA1E209C
:100CB00027490880264800883C2816DB24480088FD
:100CC000642812DC20212348FFF79DFE42212148A1
:100CD000FFF799FE00BF40211E48FFF7C6FD002820
:100CE000F9D01B48008800F039F8002400BF0848FC
:100CF0000088052190FBF1F0174908800F48008813
:100D0000401C0E4908801420FFF7DEFE27E7000094
:100D100014000020160000203000002028000020D1
:100D2000440000202A0000202C0000202E0000207B
:100D30003200002033000020340000201800002082
:100D40001A000020000801401C0000201E000020A6
:100D50002000002000380140220000203EB504465B
:100D600002200AE00A2194FBF1F201FB12414DF846
:100D700020100A2194FBF1F4401E0028F2DA00252D
:100D80000EE03DF82500303081B21248FFF73BFEFF
:100D900000BF40210F48FFF768FD0028F9D06D1C07
:100DA000022DEEDD0D210B48FFF72DFE00BF402187
:100DB0000848FFF75AFD0028F9D00A210548FFF737
:100DC00022FE00BF40210348FFF74FFD0028F9D065
:100DD0003EBD00000038014000B587B0012105206C
:100DE000FFF79AFB01218803FFF796FB4FF4007091
:100DF000ADF8180018208DF81B0003208DF81A009C
:100E000006A91F48FFF762FA4FF48060ADF818009A
:100E100004208DF81B0003208DF81A0006A918483D
:100E2000FFF754FA4FF4165002900020ADF814006A
:100E30000C20ADF812000020ADF81000ADF80E0047
:100E4000ADF80C0002A90F48FFF76CFD012240F23B
:100E500025510C48FFF740FD25208DF804000220A5
:100E60008DF8050001208DF806008DF8070001A817
:100E7000FFF702FB01210348FFF7EBFC07B000BDC1
:100E80000008014000380140A80E000800000020C2
:100E900044000000120A0008EC0E00084400002084
:100EA000CC040000220A0008000000000102030434
:100EB00001020304060708090204060800000000F6
:100EC000000000000000000000000000FFFFFFFF26
:100ED0000000000000000000000000000000000012
:0C0EE000000000000000090028230000B2
:04000005080000ED02
:00000001FF
